{
  "_format": "hh3-artifact-1",
  "contractName": "NectarStaking",
  "sourceName": "contracts/NectrStaking.sol",
  "abi": [
    {
      "inputs": [
        {
          "internalType": "address",
          "name": "_token",
          "type": "address"
        }
      ],
      "stateMutability": "nonpayable",
      "type": "constructor"
    },
    {
      "inputs": [],
      "name": "ReentrancyGuardReentrantCall",
      "type": "error"
    },
    {
      "anonymous": false,
      "inputs": [
        {
          "indexed": true,
          "internalType": "address",
          "name": "user",
          "type": "address"
        },
        {
          "indexed": false,
          "internalType": "uint256",
          "name": "amount",
          "type": "uint256"
        }
      ],
      "name": "Staked",
      "type": "event"
    },
    {
      "anonymous": false,
      "inputs": [
        {
          "indexed": true,
          "internalType": "address",
          "name": "user",
          "type": "address"
        },
        {
          "indexed": false,
          "internalType": "uint256",
          "name": "amount",
          "type": "uint256"
        }
      ],
      "name": "Unstaked",
      "type": "event"
    },
    {
      "inputs": [
        {
          "internalType": "uint256",
          "name": "amount",
          "type": "uint256"
        }
      ],
      "name": "stake",
      "outputs": [],
      "stateMutability": "nonpayable",
      "type": "function"
    },
    {
      "inputs": [
        {
          "internalType": "address",
          "name": "",
          "type": "address"
        }
      ],
      "name": "stakes",
      "outputs": [
        {
          "internalType": "uint256",
          "name": "",
          "type": "uint256"
        }
      ],
      "stateMutability": "view",
      "type": "function"
    },
    {
      "inputs": [],
      "name": "token",
      "outputs": [
        {
          "internalType": "contract IERC20",
          "name": "",
          "type": "address"
        }
      ],
      "stateMutability": "view",
      "type": "function"
    },
    {
      "inputs": [
        {
          "internalType": "uint256",
          "name": "amount",
          "type": "uint256"
        }
      ],
      "name": "unstake",
      "outputs": [],
      "stateMutability": "nonpayable",
      "type": "function"
    }
  ],
  "bytecode": "0x6080604052348015600e575f5ffd5b506040516104a03803806104a0833981016040819052602b916053565b60015f81905580546001600160a01b0319166001600160a01b0392909216919091179055607e565b5f602082840312156062575f5ffd5b81516001600160a01b03811681146077575f5ffd5b9392505050565b6104158061008b5f395ff3fe608060405234801561000f575f5ffd5b506004361061004a575f3560e01c806316934fc41461004e5780632e17de7814610080578063a694fc3a14610095578063fc0c546a146100a8575b5f5ffd5b61006d61005c36600461033c565b60026020525f908152604090205481565b6040519081526020015b60405180910390f35b61009361008e366004610369565b6100d3565b005b6100936100a3366004610369565b61020b565b6001546100bb906001600160a01b031681565b6040516001600160a01b039091168152602001610077565b6100db610314565b5f811180156100f85750335f908152600260205260409020548111155b6101335760405162461bcd60e51b81526020600482015260076024820152661a5b9d985b1a5960ca1b60448201526064015b60405180910390fd5b335f9081526002602052604081208054839290610151908490610394565b909155505060015460405163a9059cbb60e01b8152336004820152602481018390526001600160a01b039091169063a9059cbb906044016020604051808303815f875af11580156101a4573d5f5f3e3d5ffd5b505050506040513d601f19601f820116820180604052508101906101c891906103ad565b5060405181815233907f0f5bb82176feb1b5e747e28471aa92156a04d9f3ab9f45f28e2d704232b93f75906020015b60405180910390a261020860015f55565b50565b610213610314565b5f81116102465760405162461bcd60e51b81526020600482015260016024820152600360fc1b604482015260640161012a565b6001546040516323b872dd60e01b8152336004820152306024820152604481018390526001600160a01b03909116906323b872dd906064016020604051808303815f875af115801561029a573d5f5f3e3d5ffd5b505050506040513d601f19601f820116820180604052508101906102be91906103ad565b50335f90815260026020526040812080548392906102dd9084906103cc565b909155505060405181815233907f9e71bc8eea02a63969f509818f2dafb9254532904319f9dbda79b67bd34a5f3d906020016101f7565b60025f540361033657604051633ee5aeb560e01b815260040160405180910390fd5b60025f55565b5f6020828403121561034c575f5ffd5b81356001600160a01b0381168114610362575f5ffd5b9392505050565b5f60208284031215610379575f5ffd5b5035919050565b634e487b7160e01b5f52601160045260245ffd5b818103818111156103a7576103a7610380565b92915050565b5f602082840312156103bd575f5ffd5b81518015158114610362575f5ffd5b808201808211156103a7576103a761038056fea2646970667358221220d2c99287aad5cf827e4c4c7526cc0063f735b85a15c7b57551bcb3c7502ef00264736f6c634300081c0033",
  "linkReferences": {},
  "deployedLinkReferences": {},
  "immutableReferences": {},
  "inputSourceName": "project/contracts/NectrStaking.sol",
  "buildInfoId": "solc-0_8_28-18085b5a8f54fddd0ec44c50b4ea423cffb9a8c0"
}